:060000000A128A110C280F
:10000800FE00030EF1000A08F2000A128A11752890
:100018000A128A110F28F701F801F901FA0183126F
:100028000313A301A40183010A128A11EE2883167F
:100038000313880183120313081088100811033072
:100048000A128A1176210A128A110A30F300003046
:10005800F4000A128A1184210A128A1103300A1242
:100068008A1176210A128A110530F3000030F40053
:100078000A128A1184210A128A1103300A128A117B
:1000880076210A128A110530F3000030F4000A12B2
:100098008A1184210A128A1102300A128A117621E1
:1000A8000A128A1128300A128A1176210A128A1134
:1000B8000C300A128A1176210A128A1106300A12A5
:1000C8008A1176210A128A1101300A128A117621C0
:1000D8000A128A1180300A128A1176210A128A11AC
:1000E80008000B1D78287928AB280130F907031878
:1000F800FA0A0030FA077A087802031D8528790879
:1001080077020318882889288B28F701F80101301D
:1001180083120313A3070318A40A0030A4070330AB
:100128002402E93003192302031C9B289C28A828D1
:10013800A301A40106080139F0000130F006060801
:100148007006FE3970068600843081000B11720833
:100158008A00710E8300FE0E7E0E090083120313BF
:10016800A0002008031DB928BA28BC280810BD28FB
:10017800081408157508F60004300310F60CFF3E45
:10018800031DC12876080A128A1125210A128A112C
:100198008312031308110A30F3000030F4000A1226
:1001A8008A1184210A128A1183120313081575080B
:1001B8000A128A1125210A128A11831203130811BF
:1001C8000A30F3000030F4000A128A1184210A125E
:1001D8008A1108008316031306108312031388017B
:1001E8008316031388010A128A1191210A128A11AF
:1001F80000300A128A114F210A128A110A128A1132
:100208001B200A128A110A128A119D210A128A11C8
:10021800003A031910291129072980300A128A1176
:1002280076210A128A110A128A11A7210A128A1142
:100238000A128A1168210A128A1107290A128A11D8
:100248000C28F300731829292D2983120313081683
:100258003029831203130812F3183329372983121C
:10026800031388163A2983120313881273193D2938
:10027800412983120313081744298312031308130F
:10028800F31947294B298312031388174E29831220
:10029800031388130800F3008316031387129401CD
:1002A8008312031394167303031D5B295C296029C9
:1002B80083160313871167291408F039043894004A
:1002C800831603138715080083120313A20022085C
:1002D800A1002108F50001300A128A11B2200A1281
:1002E8008A11080083120313A2002208A100210822
:1002F800F50000300A128A11B2200A128A11080089
:10030800F901FA017408F8007308F700770878040F
:10031800031D8F2990298A290800043083160313A6
:10032800810083308312031381008B168B170B1700
:10033800080083160313141CA229A329A529013038
:0E034800A629003008008312031313080800D2
:08400000FF3FFF3FFF3FFF3FC0
:02400E00BA3FB7
:00000001FF
