:060000000A128A110C280F
:10000800FE00030EF1000A08F2000A128A111C28E9
:100018000A128A110F28F601F701F801F901FA010D
:1000280083120313A301A40183010A128A11592818
:100038000B1D1F28202852280130F8070318F90A39
:100048000030F90779087702031D2C287808760212
:1000580003182F2830283228F601F70101308312BF
:100068000313A3070318A40A0030A40703302402CB
:10007800E93003192302031C422843284F28A3010F
:10008800A40106080139F0000130F00606087006E0
:10009800FE3970068600843081000B1172088A00D0
:1000A800710E8300FE0E7E0E09008316031386016F
:1000B80088010A128A11E1200A128A1101300A12F3
:1000C8008A11B1200A128A117A08303E831203136A
:1000D800A2002208A00000300A128A11C6200A12C3
:1000E8008A11F430F3000130F4000A128A11D42086
:1000F8000A128A110130FA07FF307A0783120313B4
:10010800A2000A302202031C8A288B286828FA01D8
:1001180068280A128A110C28F50083120313861422
:10012800061586159D288610B0280611B028861158
:10013800B0287508F300F4017408003A0319A528DB
:10014800B0287308003A03199728013A0319992827
:10015800033A03199B28B0280800F30083160313F9
:10016800871294018312031394167303031DBD2889
:10017800BE28C228831603138711C52883160313C4
:100188008715080083120313A10021080A128A1197
:1001980090200A128A118312031320089300080082
:1001A800F801F9017408F7007308F6007608770477
:1001B800031DDF28E028DA2808000430831603131B
:1001C800810083308312031381008B168B170B1762
:0201D80008001D
:08400000FF3FFF3FFF3FFF3FC0
:02400E00BA3FB7
:00000001FF
