:060000000A128A110C280F
:10000800FE00030EF1000A08F2000A128A11DE2926
:100018000A128A110F28F801F901FA018312031351
:10002800B201B301B401B50183010A128A115E2934
:1000380083120313A901A31F222823283028A0090B
:10004800A109A209A309A00A0319A10A0319A20A6E
:100058000319A30AA901A90AA71F3328342843288A
:10006800A409A509A609A709A40A0319A50A031939
:10007800A60A0319A70A0130F3007308A90600307D
:10008800AD000030AC000030AB000030AA002308FF
:10009800220421042004031952285328A028A80167
:1000A800A80A63280130F3000310A00DA10DA20DCA
:1000B800A30DF30B58280130F3007308A807A31FFA
:1000C8006628672856280130F3000310AA0DAB0DE7
:1000D800AC0DAD0DF30B692823082702031D7E28FC
:1000E80022082602031D7E2821082502031D7E28DA
:1000F80020082402031C8128822891282008A402B1
:100108002108031C210FA5022208031C220FA602A6
:100118002308031C230FA7022A1401300310A30C81
:10012800A20CA10CA00CFF3E031D92280130A802CE
:10013800031D9F28A028672829080319A428A52893
:10014800B028AA09AB09AC09AD09AA0A0319AB0A78
:100158000319AC0A0319AD0A2D08A3002C08A20044
:100168002B08A1002A08A0000800831603138801A1
:100178008312031308108810081103300A128A1119
:1001880071220A128A110A30F3000030F4000A12B0
:100198008A1145220A128A1103300A128A11712221
:1001A8000A128A110530F3000030F4000A128A118D
:1001B80045220A128A1103300A128A1171220A1280
:1001C8008A110530F3000030F4000A128A11452222
:1001D8000A128A1102300A128A1171220A128A112D
:1001E80028300A128A1171220A128A110C300A1256
:1001F8008A1171220A128A1106300A128A11712292
:100208000A128A1101300A128A1171220A128A11FD
:1002180080300A128A1171220A128A110800F40029
:10022800831603130716071A1A291E2983160313A0
:10023800871521298316031387117403031D2529A4
:1002480026294B292830831203139400831603139D
:1002580091019401831203132F08A0003008A10014
:10026800A201A3010030A7003D30A6000930A50077
:100278000030A4000A128A111C200A128A11831263
:1002880003132008FF3E8316031393005B29831290
:1002980003132E088316031393008030940036301E
:1002A80083120313940001308316031391008715FA
:1002B8000716080083160313061083120313880118
:1002C8008316031388010A128A117F220A128A11DF
:1002D8000A128A11B9200A128A11403083120313B4
:1002E800B1003108AE000030AF00B00000300A1293
:1002F8008A1113210A128A110A128A1154220A1227
:100308008A1183120313B1003108FA007A0803191D
:100318008E298F29802980300A128A1171220A12A7
:100328008A117A080A128A1163220A128A11FA01BA
:1003380080290A128A110C28F7007708031DA529BD
:10034800A629AA29831203130810AD2983120313BF
:10035800081408157508F60004300310F60CFF3E63
:10036800031DB12976080A128A111B220A128A1162
:100378008312031308110A30F3000030F4000A1244
:100388008A1145220A128A11831203130815750867
:100398000A128A111B220A128A11831203130811E6
:1003A8000A30F3000030F4000A128A1145220A12BA
:1003B8008A1108000B1DE129E229142A0130831251
:1003C8000313B4070318B50A0030B50735087902D6
:1003D800031DF029340878020318F329F429F629B3
:1003E800F801F9010130B2070318B30A0030B30766
:1003F80003303302E93003193202031C042A052AA8
:10040800112AB201B30106080139F0000130F006E3
:1004180006087006FE3970068600843081000B11CC
:1004280072088A00710E8300FE0E7E0E0900F3002A
:1004380073181F2A232A831203130816262A8312E5
:1004480003130812F318292A2D2A83120313881676
:10045800302A8312031388127319332A372A831216
:10046800031308173A2A831203130813F3193D2AB2
:10047800412A831203138817442A8312031388130B
:10048800080083120313B401B5017408F900730856
:10049800F80078087904031D522A532A4D2A0800C7
:1004A80083160313141C592A5A2A542A8312031335
:1004B8001308F3007308F400141674080800831274
:1004C8000313A1002108A0002008F50001300A123A
:1004D8008A11A0210A128A11080083120313A100AD
:1004E8002108A0002008F50000300A128A11A02176
:1004F8000A128A110800043083160313810083301E
:0E0508008312031381008B168B170B1708004C
:08400000FF3FFF3FFF3FFF3FC0
:02400E00BA3FB7
:00000001FF
