:060000000A128A110C280F
:10000800FE00030EF1000A08F2000A128A11F6290E
:100018000A128A110F28F901FA0183120313B50194
:10002800B601B701B80183010A128A11B8288312F0
:100038000313A901A31F212822282F28A009A109F9
:10004800A209A309A00A0319A10A0319A20A0319FC
:10005800A30AA901A90AA71F322833284228A409FC
:10006800A509A609A709A40A0319A50A0319A60A36
:100078000319A70A0130F3007308A9060030AD0080
:100088000030AC000030AB000030AA002308220486
:10009800210420040319512852289F28A801A80ADE
:1000A80062280130F3000310A00DA10DA20DA30DCD
:1000B800F30B57280130F3007308A807A31F65281E
:1000C800662855280130F3000310AA0DAB0DAC0DBE
:1000D800AD0DF30B682823082702031D7D2822088D
:1000E8002602031D7D2821082502031D7D282008DE
:1000F8002402031C8028812890282008A4022108B3
:10010800031C210FA5022208031C220FA6022308A4
:10011800031C230FA7022A1401300310A30CA20CFE
:10012800A10CA00CFF3E031D91280130A802031D5D
:100138009E289F28662829080319A328A428AF28E1
:10014800AA09AB09AC09AD09AA0A0319AB0A031934
:10015800AC0A0319AD0A2D08A3002C08A2002B082D
:10016800A1002A08A00008008316031306108312B2
:10017800031388018316031388010A128A11AE2219
:100188000A128A110A128A1113210A128A11831279
:100198000313AE016430AF000030B00001300A1222
:1001A8008A116D210A128A1183120313B301B40153
:1001B8004030F4000030F500831203133308303E5A
:1001C800B1003108F6000A128A115D220A128A115A
:1001D800831203133408B2003308B100B30A0319B9
:1001E800B40A3208803AFF0080307F02031DFE28DF
:1001F8000A303102031C012902290629831203133C
:10020800B301B401E830F3000330F4000A128A1194
:1002180084220A128A11DC280A128A110C288316F1
:100228000313880183120313081088100811033080
:100238000A128A1193220A128A110A30F300003036
:10024800F4000A128A1184220A128A1103300A124F
:100258008A1193220A128A110530F3000030F40043
:100268000A128A1184220A128A1103300A128A1188
:1002780093220A128A110530F3000030F4000A12A2
:100288008A1184220A128A1102300A128A119322D0
:100298000A128A1128300A128A1193220A128A1124
:1002A8000C300A128A1193220A128A1106300A1295
:1002B8008A1193220A128A1101300A128A11932292
:1002C8000A128A1180300A128A1193220A128A119C
:1002D8000800F400831603130716071A74297829EF
:1002E8008316031387157B29831603138711740359
:1002F800031D7F298029A529283083120313940020
:100308008316031391019401831203132F08A0008D
:100318003008A100A201A3010030A7003D30A600CB
:100328000930A5000030A4000A128A111B200A1205
:100338008A11831203132008FF3E831603139300C8
:10034800B529831203132E088316031393008030F4
:10035800940036308312031394000130831603137C
:100368009100871507160800F7007708031DBD29B7
:10037800BE29C229831203130810C5298312031347
:10038800081408157508F60004300310F60CFF3E33
:10039800031DC92976080A128A1133220A128A1102
:1003A8008312031308110A30F3000030F4000A1214
:1003B8008A1184220A128A118312031308157508F8
:1003C8000A128A1133220A128A118312031308119E
:1003D8000A30F3000030F4000A128A1184220A124B
:1003E8008A1108000B1DF929FA292C2A01308312D9
:1003F8000313B7070318B80A0030B80738087A0299
:10040800031D082A3708790203180B2A0C2A0E2A1A
:10041800F901FA010130B5070318B60A0030B6072A
:1004280003303602E93003193502031C1C2A1D2A41
:10043800292AB501B60106080139F0000130F00695
:1004480006087006FE3970068600843081000B119C
:1004580072088A00710E8300FE0E7E0E0900F300FA
:100468007318372A3B2A8312031308163E2A83126D
:1004780003130812F318412A452A83120313881616
:10048800482A83120313881273194B2A4F2A83129E
:1004980003130817522A831203130813F319552A52
:1004A800592A8312031388175C2A831203138813AB
:1004B80008000A128A11C3220A128A1174080A1241
:1004C8008A1174220A128A1176080A128A11742271
:1004D8000A128A110A128A11BA220A128A1108000B
:1004E800F3000A128A11A1220A128A1173088312D0
:1004F800031393000A128A11A1220A128A11080012
:1005080083120313B701B8017408FA007308F900DD
:1005180079087A04031D912A922A8C2A08008312EA
:100528000313A0002008F8007808F50000300A122C
:100538008A11B8210A128A110800831603131419A4
:10054800A62AA72AA12A11081F39031DAC2AAD2AF9
:10055800A12A080004308316031381008330831214
:10056800031381008B168B170B1708000A128A11C8
:10057800A1220A128A1183160313111508000A1200
:100588008A11A1220A128A11831603131114080072
:08400000FF3FFF3FFF3FFF3FC0
:02400E00BA3FB7
:00000001FF
